:100000000040002039020000D1010000D1010000B1
:1000100000000000000000000000000000000000E0
:10002000000000000000000000000000D1010000FE
:100030000000000000000000D1010000D10100001C
:10004000D1010000D1010000D1010000D101000068
:10005000D101000000000000D1010000D10100002A
:10006000790B0000950B0000B10B0000D1010000DE
:10007000D1010000E1070000D1010000D101000022
:10008000D1010000D1010000D1010000D101000028
:10009000D1010000D1010000D1010000D101000018
:1000A000D1010000D10100000000000000000000AC
:1000B0000000000000000000D1010000D10100009C
:1000C00010B5041D201C0321032200F0C3F90028F1
:1000D00006D0201C03210322002300F06DFA05E066
:1000E000201C03210322012300F066FA10BDC04644
:1000F00008B5043000F0C2F908BDC04630B583B081
:10010000051C303000950421FA229200052300F0EE
:1001100013FD2C1C4034009500230193201C092161
:10012000164A013300F0D0FC0435281C144900F0B5
:100130006FFA144BC046013B002BFBD1281C104921
:100140001C3100F065FA0F4BC046013B002BFBD180
:10015000281C0B49383100F05BFA0A4BC046013BC2
:10016000002BFBD1281C00F0F9F9064BC046013BDF
:10017000002BFBD1201C00F0F9FBFEE7093D00003D
:1001800000000020085714007047C0467047C04662
:100190007047C04600B595B068460021502200F077
:1001A00033FD084B009301A800F0F0F90CA80221E0
:1001B00000F0ECFB10A8012100F0E8FB6846FFF717
:1001C0009DFFFEE7A00C00007047C0467047C04688
:1001D000FEE7C0460022054B1A600132013BFF3B9F
:1001E0001A60024A1368002BFCD0704700010040DF
:1001F00010B50C490C4B591A07D00023094C0B4879
:10020000C25CE25401339942FAD10949094B591AA7
:1002100007D00023064C00201A19107001339942B0
:10022000FAD110BD0000002054000020B40C0000E2
:10023000540000206400002008B5FFF7D9FFFFF745
:10024000A9FFFEE70079704700238268012A07D1E1
:10025000044B196803799A40131C0B40581E8341C4
:10026000181C7047100500508368012B0BD1002922
:1002700004D102799340044A136004E00279012317
:100280009340024A136070470C0500500805005067
:100290008368012B03D102799340014A13607047B0
:1002A000080500508368012B03D102799340014A6D
:1002B000136070470C05005010B58368012B0DD1F9
:1002C000041CFFF7C1FF002804D1201C0121FFF707
:1002D000CBFF03E0201C0021FFF7C6FF10BDC04686
:1002E00010B58368012B08D102681468034B2340C2
:1002F0001360026813681943116010BDFFF8FFFF17
:1003000000238268012A25D103681A68E023DB00F4
:100310001340A022D200934211D0013AFF3A9342F7
:1003200010D0013AFF3A93420FD0013AFF3A93427C
:100330000ED0013BFF3B5A425A4113020AE0A02370
:10034000DB0007E08023DB0004E0C0239B0001E02A
:1003500080239B00181C704710B58368012B10D1B7
:1003600003795A1E022A0CD9112B0AD01A2B08D055
:10037000026813680C24A3431360026813681943CE
:10038000116010BD00238268012A15D10279511E27
:100390000C33022910D9112A0ED01A2A0CD0036866
:1003A0001B680C221A400423042A05D008330C3A97
:1003B0005042504142421340181C7047002382684B
:1003C000012A03D103681B6801200340181C7047F1
:1003D00010B58368012B08D1026813680224A34377
:1003E0001360026813681943116010BD10B583686B
:1003F000012B0BD1026813680124A3431360026828
:100400001368194311600021FFF7E2FF10BDC046D9
:1004100010B5041C017101238360044BCB189B00B1
:100420000360111CFFF7E2FF201C10BDC001001487
:1004300002238268012A03D103681868022303405B
:10044000181C7047014A024B1A607047F0FF000009
:10045000180500504B1E042B09D8531E042B09D835
:100460008B00591841188A18063A107904E00120C7
:10047000404201E0012040427047C046084A094B13
:100480001A60036808339B001A58074B1A60036808
:100490000133022B01D8036001E0002303607047A1
:1004A000F0FF00000C0500500805005003791A0108
:1004B00083795B015340264A5340027A92015340AC
:1004C000C27B12035340C27CD2025340027D92028F
:1004D0005340427D52025340827D12025340C27DFE
:1004E000D201534003624379DA01C3791B025340BE
:1004F000184A5340827B52015340027C9201534080
:10050000827C12015340427E92025340C27E5202CC
:1005100053404362437ADA01837A1B0253400E4A06
:100520005340C27A52025340027B92025340427BB4
:10053000D2025340427C12035340027E9201534048
:10054000827E12015340027F520153408362704702
:10055000F03F0000F05F0000F09F000010B5041CA9
:10056000031D011C1D3100221A7001338B42FBD187
:10057000201CFFF79BFF201CFFF780FF201CFFF7CC
:100580007DFF201CFFF77AFF10BDC04610B5041C8C
:100590000023036043608360C36003614361836140
:1005A0000377FFF7DBFF024A024B1A60201C10BDE5
:1005B000F0FF00001805005010B54C1E042C0CD89C
:1005C000541E042C09D8012B07D88C00611841183F
:1005D0008A18063A1371FFF769FF10BD08B54B1E64
:1005E000042B13D8531E042B10D8063A8B0059182D
:1005F000511843181B79002B03D1411801330B719B
:1006000002E0411800230B71FFF750FF08BDC04600
:1006100010B50023CC5CC21814710133192BF9D129
:10062000FFF744FF10BDC04670B54B1E042B11D818
:10063000131C033141180532012600251C78002CBB
:1006400001D10D7000E00E70013305319342F5D1F8
:10065000FFF72CFF70BDC0460023436003720133D7
:100660000360014B18607047540000200222524280
:10067000014B1A607047C04600D200400368002B4F
:1006800004D0034A116801230B4313607047C0462E
:1006900004D300400368002B04D0034A11680123EF
:1006A0000B4313607047C04608D3004008B5036889
:1006B000002B1ED04268002A1BD0037A012B04D1E4
:1006C00013681B68101C984713E0022B04D11368B1
:1006D0005B68101C98470CE0032B04D113685B681F
:1006E000101C984705E0042B03D113685B68101CAD
:1006F000984708BD002343600372704708B503683C
:10070000002B02D00D2000F061FA08BD10B5041CCA
:100710000368002B06D042600172FFF7AFFF201C78
:10072000FFF7ECFF10BDC04608B50368002B02D0F0
:100730000D2000F055FA08BD0368002B02D00122FD
:10074000014B1A607047C04604D0004010B5041C2D
:10075000FFF7F2FF002363602372201CFFF7E4FF22
:1007600010BDC0460368002B01D0014B19607047D3
:1007700004D5004003680020002B05D0034B186807
:10078000013843425841C0B27047C04604D50040CA
:100790000068002808D0054A1368002BFCD0044BE1
:1007A00018680022014B1A607047C04600D1004013
:1007B00008D500400368002B02D00022014B1A60CC
:1007C0007047C04600D1004008B50368002B04D034
:1007D000FFF7F0FF0122014B1A6008BD00D0004076
:1007E00008B5034B1868002801D0FFF75FFF08BD6C
:1007F00054000020C3688022920094466344014A5A
:100800001A607047F0F0FFFF0378002B08D0C36830
:100810008022920094466344196801220A431A60B8
:100820007047C046031C02780020002A07D0DB680E
:1008300080229200944663441B6801301840704740
:10084000C368C222920094466344F02212031A60E5
:100850007047C0460378002B09D0C368C1229200BC
:10086000944663441A68802149020A431A6070471B
:100870000378002B09D0C368C222920094466344D7
:100880001A68802149020A431A6070470378002BD6
:1008900001D042600172704708B50378002B25D063
:1008A0004268002A22D0037A012B04D113681B6806
:1008B000101C98471AE0022B04D113685B68101CC7
:1008C000984713E0032B04D113685B68101C98470A
:1008D0000CE0042B04D113685B68101C984705E0FA
:1008E000052B03D113681B69101C984708BDC0462F
:1008F0000023436003727047037A002B04D08B42BD
:1009000002D10023436003727047C04608B50378E4
:10091000002B11D04378002B03D1082000F056F9AA
:100920000AE0012B03D1092000F050F904E0022B6A
:1009300002D10A2000F04AF908BDC04608B5037884
:10094000002B11D04378002B03D1082000F048F988
:100950000AE0012B03D1092000F042F904E0022B48
:1009600002D10A2000F03CF908BDC0460378002BF4
:1009700002D0C36801221A607047C0460378002B7A
:1009800002D0C36801225A607047C04610B5041CEB
:10099000002343600372C360013303704170012977
:1009A00004D10D4B18600D4BC3600AE0022904D13D
:1009B000094B58600A4BC36003E0074B9860074B34
:1009C000C360201CFFF7DAFF201CFFF713FF201C79
:1009D000FFF736FF201C10BD58000020009000409B
:1009E00000A0004010B5041CFFF7C8FF002363609F
:1009F0002372201CFFF7A2FF10BDC0460378002B16
:100A000002D0C3680122DA607047C0460378002B29
:100A100005D0C368A222D20094466344196070478F
:100A200002780023002A05D0C368A222D20094468F
:100A300063441B68181C70470378002B05D0C368FB
:100A4000A122D200944663441960704702780023C3
:100A5000002A0FD0C368A122D200944663441868CC
:100A60000323032806D0013B022803D0431E58422B
:100A70004341DBB2181C70470378002B04D0C368D5
:100A8000024A9446634419607047C046040500005A
:100A9000031C02780020002A08D0DB68044A944630
:100AA00063441868013843425841C0B27047C04699
:100AB000040500000378002B05D0C368A822D200EB
:100AC000944663441960704770B5041C0E1C151CD5
:100AD0000278002A2ED0049A42600372FFF74EFF7C
:100AE0006378002B04D1201C0321FFF7A5FF03E04E
:100AF000201C0021FFF7A0FF201C0021FFF7BCFFF6
:100B0000201C311CFFF782FF201C291CFFF7D2FF9D
:100B1000201CFFF779FE201CFFF770FF201CFFF759
:100B200099FE201CFFF7F2FE059B002B02D0201C33
:100B3000FFF71CFF70BDC04610B582B0049C009446
:100B400001240194FFF7C0FF02B010BD027800231A
:100B5000002A05D0C368A822D200944663441B68CB
:100B6000181C70470378002B04D0C3684133FF334F
:100B700000221A607047C04608B5054B98680028E7
:100B800005D0FFF789FE024B9868FFF7EBFF08BD21
:100B90005800002008B5054B1868002805D0FFF75D
:100BA0007BFE024B1868FFF7DDFF08BD58000020F0
:100BB00008B5054B5868002805D0FFF76DFE024BBD
:100BC0005868FFF7CFFF08BD580000201F2804D841
:100BD00001238340181C014B1860704700E100E0BE
:100BE0001F2804D801238340181C014B186070474C
:100BF00080E100E01F2804D801238340181C014B2A
:100C00001860704780E200E070B583073FD0541E43
:100C1000002A3BD0CEB2031C032503E0621E002C49
:100C200034D0141C01335A1E16702B42F6D1032CFB
:100C300024D9FF250D402A0215432A0415430F2C01
:100C400011D9261C103E3609013636011A1C9B1993
:100C5000156055609560D56010329342F8D10F222F
:100C60001440032C0AD9261FB6080136B6001A1CF8
:100C70009B1920C29342FCD103221440002C05D0C2
:100C8000C9B21C1919700133A342FBD170BD141CE9
:100C9000031CCCE700000000000000000000000082
:100CA000C1000000890100008D01000091010000D9
:040CB000F10000004F
:100CB4000101010101010101010101010101010120
:100CC4000101010101010101010000000101010113
:100CD4000101000000010100000001010000000109
:100CE40001010101010000000000000000000101F9
:100CF40001000001000100000101010000000000EA
:040D040000000000EB
:00000001FF
